:100000000C942A000C9434000C9434000C943400AA
:100010000C9434000C9434000C9434000C94340090
:100020000C9434000C9434000C9434000C94340080
:100030000C9434000C9434000C9434000C94340070
:100040000C9434000C9434000C9434000C94340060
:100050000C94340011241FBECFE5D8E0DEBFCDBF25
:100060000E943C000C944B000C94000089E683BF76
:1000700087B3886087BB08950E94360080E008C07F
:100080008CBFEFE1FEE43197F1F700C000008F5F15
:0A0090008F3FB1F7F3CFF894FFCFD4
:00000001FF
